:100000000C9434000C9451000C9451000C94510049
:100010000C9451000C9451000C9451000C9451001C
:100020000C9451000C9451000C9451000C9451000C
:100030000C9451000C9451000C9451000C945100FC
:100040000C9491080C9451000C9451000C945100A4
:100050000C9451000C9451000C9451000C945100DC
:100060000C9451000C94510011241FBECFEFD8E026
:10007000DEBFCDBF13E0A0E0B1E0E2E7F3E102C0F4
:1000800005900D92AE30B107D9F715E0AEE0B3E0C0
:1000900001C01D92A034B107E1F70E94C8080C947A
:1000A000B7090C94000090E020EA3FE005C0A89555
:1000B000F9013197F1F79F5F9817C8F308950F93EF
:1000C0001F93CF93DF93082F10E00BC0C0E0D0E068
:1000D00081E00E945300219683E0C73ED807C1F714
:1000E0001F5F101798F3DF91CF911F910F91089523
:1000F0002CEF33E005C0F9013197F1F78F5F9040A5
:100100008F3F910509F0B8F7009761F090E0A0E00B
:10011000B0E022E0880F991FAA1FBB1F2A95D1F7D4
:100120000197F1F7089540EA5FE009C020E0FA0185
:100130003197F1F72F5F2F3FD1F78F5F90408F3FBF
:10014000910509F098F7009749F020E040EA5FE058
:10015000FA013197F1F72F5F2817D0F30895CF9365
:10016000DF93EC0105C08FEF0E945300CF5FD040BA
:10017000CF3FD10509F0B8F7209719F08C2F0E94D6
:100180005300DF91CF91089540EA5FE022C0FA0169
:100190003197F1F72F5F2A3FD1F720E0FA0131972D
:1001A000F1F72F5F2A3FD1F720E0FA013197F1F7FD
:1001B0002F5F2A3FD1F720E0FA013197F1F72F5F47
:1001C0002A3FD1F73F5F3F3F11F020E0E0CF8F5F44
:1001D00090408F3F910519F010F030E0F6CF009776
:1001E00021F130E040EA5FE01EC0FA013197F1F7FB
:1001F0002F5F2A3FD1F720E0FA013197F1F72F5F07
:100200002A3FD1F720E0FA013197F1F72F5F2A3F1B
:10021000D1F720E0FA013197F1F72F5F2A3FD1F7AC
:100220003F5F381710F420E0E0CF0895CF93DF93BD
:10023000EC0105C08FEF0E945F00CF5FD040CF3F41
:10024000D10509F0B8F7209719F08C2F0E945F00B4
:10025000DF91CF910895DF93CF9300D000D0CDB739
:10026000DEB769837A838B839C83FE013196898113
:10027000882369F48181882351F48281803839F49C
:1002800083818F778F3719F42FEF3FEF02C020E083
:1002900030E0C9010F900F900F900F90CF91DF9138
:1002A00008952198209808952198209808952098DD
:1002B000219884E090E0FC013197F1F7219A299888
:1002C0000197F1F7209A28980895219884E090E00A
:1002D000FC013197F1F72098FC013197F1F7219A51
:1002E00029980197F1F7209A28980895209A28983C
:1002F000219A299884E090E0FC013197F1F7209849
:100300000197F1F721980895582F40E820E030E058
:10031000E4E0F0E0842F852311F0219802C0219AB7
:10032000299864E070E0CF010197F1F72098CF01A0
:100330000197F1F7209A289846952F5F3F4F283074
:10034000310541F72198CB010197F1F72098CB01B6
:100350000197F1F7219885B184B183B1209A28984B
:100360008695817008952198E4E0F0E03197F1F7E7
:1003700090E840E020E030E064E070E02098FB018D
:100380003197F1F7219855B154B11999492B209A19
:100390002898FB013197F1F796952F5F3F4F283052
:1003A000310561F7882311F0219802C0219A29981C
:1003B00084E090E0FC013197F1F720980197F1F784
:1003C000209A2898842F0895089580E0089508952C
:1003D00081E0089580E00895229880E01A9B81E0F2
:1003E000482F20E030E060EA7FE006C02F5F3F4FFB
:1003F0002A30310568F4482FCB010197F1F7229894
:1004000080E01A9B81E0841789F320E030E0F3CF8D
:10041000089560EA7FE0229880E01A9B81E0482FEF
:1004200020E030E006C02F5F3F4F2A30310568F4EE
:10043000482FCB010197F1F7229880E01A9B81E0C9
:10044000841789F320E030E0F3CF813021F3089561
:1004500060EA7FE0229880E01A9B81E0482F20E04C
:1004600030E006C02F5F3F4F2A30310568F4482F37
:10047000CB010197F1F7229880E01A9B81E0841765
:1004800089F320E030E0F3CF813021F7089508951B
:10049000282FE62F6CE00E947309833081F18430AD
:1004A00028F48130C1F0823000F50CC08530D9F1DC
:1004B000853078F1863009F43FC0873009F447C0B1
:1004C0008AEA089585E0289FC0011124E80FF0E032
:1004D000EF52FD4F3AC0EC5385E0289FC001112434
:1004E000E80FF0E0EB56FD4F30C0E85785E0289F5D
:1004F000C0011124E80FF0E0E75AFD4F26C0E45B8D
:1005000085E0289FC0011124E80FF0E0E35EFD4F75
:100510001CC0E05F85E0289FC0011124E80FF0E0D7
:10052000EF51FE4F12C0EC52289FC0011124E80F7A
:10053000F0E0EB55FE4F09C0E85685E0289FC0016A
:100540001124E80FF0E0EE5CFE4F80810895E45A3C
:1005500085E0289FC0011124E80FF0E0E259FE4F2A
:10056000808108951F93182F0E94570188E70E94E9
:10057000840180E00E948401812F0E9484010E94F6
:1005800076011F9108958093140460931B0466956F
:1005900066956695609391030E94570188E70E94D3
:1005A000840180E00E94840180919103806B0E940D
:1005B00084018091140482958F7080610E9484016F
:1005C000809114048F700E9484010E947601089526
:1005D000882311F08FEA01C08EEA0E94B2020895CA
:1005E0001F93182F0E94570188E70E94840180E41E
:1005F0000E948401812F0E9484010E9476011F9134
:100600000895FF920F931F93CF93DF93EC01809196
:100610000E03823059F08330B1F08130D1F480E89C
:1006200090E0861B970BBE01EC0113C080E890E0C0
:100630009C012C1B3D0BE90180E290E09C01261BF4
:10064000370BB90106C080E290E08C1B9D0BEB01DB
:10065000BC01362F262F27708B0143E01695079596
:100660004A95E1F703301105B1F00430110538F473
:100670000130110541F00230110589F408C008303D
:10068000110568F410C0FE01E15EFB4F0BC0FE01D6
:10069000E454FB4F07C0FE01EF5EFC4F03C0FE01B8
:1006A000EE56FC4FE0818091A1049091A204892B29
:1006B00051F081E090E002C0880F991F2A95E2F77F
:1006C000FE2EF82A0AC081E090E002C0880F991F30
:1006D0002A95E2F7F82EF094FE22EF1521F18C2FE7
:1006E000632F0E94C3028F2D0E94F0020330110578
:1006F000A1F00430110538F40130110541F0023049
:10070000110571F407C00830110550F40CC0C15E2A
:10071000DB4F08C0C454DB4F05C0CF5EDC4F02C0C6
:10072000CE56DC4FF882DF91CF911F910F91FF9051
:1007300008952F923F924F925F926F927F928F9285
:100740009F92AF92BF92CF92DF92EF92FF920F9360
:100750001F93DF93CF9300D000D0CDB7DEB75A837D
:1007600049833C832B835A01A81AB90A6901C61A26
:10077000D70A7C018B01B7FC04C0E1E06E2E712C1E
:1007800007C0B094A194B108B39466246A94762CFF
:10079000D7FC04C071E0872E912C07C0D094C1947F
:1007A000D108D39488248A94982C1501220C331CE8
:1007B0002601440C551CAC14BD04C4F0CC24DD242B
:1007C0000FC0C701B8010E940103C40CD51CAC14B2
:1007D000BD0424F4080D191DC218D308E60CF71C3B
:1007E00089819A81E816F90661F717C0AA24BB240B
:1007F0000FC0C701B8010E940103A20CB31CCA14A8
:10080000DB0424F4E60CF71CA418B508080D191D28
:10081000EB81FC810E171F0761F7C701B8010E9429
:1008200001030F900F900F900F90CF91DF911F91C8
:100830000F91FF90EF90DF90CF90BF90AF909F907F
:100840008F907F906F905F904F903F902F90089582
:1008500080930E030895FF920F931F93CF93DF931E
:10086000EC0180910E03823059F08330B1F0813079
:10087000D1F480E890E0861B970BBE01EC0113C019
:1008800080E890E09C012C1B3D0BE90180E290E0A8
:100890009C01261B370BB90106C080E290E08C1B3F
:1008A0009D0BEB01BC01362F262F27708B01F3E047
:1008B00016950795FA95E1F703301105B1F004306C
:1008C000110538F40130110541F00230110589F4A9
:1008D00008C00830110568F410C0FE01E15EFB4F4E
:1008E0000BC0FE01E454FB4F07C0FE01EF5EFC4F5E
:1008F00003C0FE01EE56FC4FE081809118049091F8
:100900001904892B51F081E090E002C0880F991FF3
:100910002A95E2F7FE2EF82A0AC081E090E002C094
:10092000880F991F2A95E2F7F82EF094FE22EF1512
:1009300021F18C2F632F0E94C3028F2D0E94F002A1
:1009400003301105A1F00430110538F40130110510
:1009500041F00230110571F407C00830110550F460
:100960000CC0C15EDB4F08C0C454DB4F05C0CF5E76
:10097000DC4F02C0CE56DC4FF882DF91CF911F9141
:100980000F91FF9008952F923F924F925F926F9236
:100990007F928F929F92AF92BF92CF92DF92EF920F
:1009A000FF920F931F93DF93CF93CDB7DEB7659779
:1009B0000FB6F894DEBF0FBECDBF782FE92F5E874C
:1009C0004D87388B2F87E98A023069F0033079F040
:1009D000013029F422E0288731E03F830CC081E018
:1009E00088878F8308C092E098879F8304C0F1E0D6
:1009F000F88722E02F83872F9E2F9C014901F90160
:100A0000442414C08191882381F41E821A86198699
:100A10001E010894211C311CCE0106969B8B8A8BEB
:100A2000FE013796FD8BEC8B6CC04394461650F359
:100A3000ECCFF401F080F0EEFF0E51018101602F48
:100A400062198F2D0E944802F80181938F012A8933
:100A50003B89E217F30799F71E8245C0011511057E
:100A600041F06F8578896C0D711DC3010E940103EF
:100A70000AC03989332339F46F8578896C0D711D6B
:100A8000C3010E942B04D394C3948F81D81630F3F2
:100A90000894E11CF11C98E0E916F10461F00B8563
:100AA0001C850E2C02C0159507950A94E2F701707B
:100AB0001070DD24D3CF5394EA85EF5FEA87F88581
:100AC0005F1648F4CC24EE24FF246D847E842A85AE
:100AD000620E711CE4CF0894A11CB11C8C899D8905
:100AE000A816B90641F0F5018081282F30E03C8737
:100AF0002B875524E7CF39853F5F39870894811CC0
:100B0000911C8985841508F494CF65960FB6F894E6
:100B1000DEBF0FBECDBFCF91DF911F910F91FF9030
:100B2000EF90DF90CF90BF90AF909F908F907F908D
:100B30006F905F904F903F902F9008952F923F922B
:100B40004F925F926F927F928F929F92AF92BF92DD
:100B5000CF92DF92EF92FF920F931F93DF93CF9389
:100B6000CDB7DEB728970FB6F894DEBF0FBECDBF66
:100B70003B012A012F8308875C01CC24B7FCC09479
:100B8000DC2CD7FE0DC08DE28983D094C094B09444
:100B9000A094A11CB11CC11CD11C992493940FC01A
:100BA000A114B104C104D10449F49924B1E0EB2E9D
:100BB000F12C012D112D8824839409C09924E12C56
:100BC000AAECFA2EAAE90A2FABE31A2F88241E01F9
:100BD0000894211C311CAE14BF04C006D10610F4C9
:100BE0008820E1F0C601B501A80197010E947F09A4
:100BF000F101E90DF11D205D20832053939430E035
:100C000040E050E0CA01B901A80197010E945409CF
:100C1000A61AB70AC80AD90A8824839485E08915D8
:100C200090F0C801B7012AE030E040E050E00E94B7
:100C30007F09C901DA017C018D01E114F10401058C
:100C4000110549F623C0CE01019666E070E0A301CC
:100C500092010F81E8840E94C30428960FB6F8948D
:100C6000DEBF0FBECDBFCF91DF911F910F91FF90DF
:100C7000EF90DF90CF90BF90AF909F908F907F903C
:100C80006F905F904F903F902F900895FE01E90D77
:100C9000F11D1182D8CF1F93182F81E80E94B20254
:100CA000812F0E94B2021F910895FF920F931F930C
:100CB0008091180490911904892B11F4FF2402C02B
:100CC000FF24FA9400E0602F660F660F660F80E045
:100CD0000E94C3020E94570188E70E94840180E4B9
:100CE0000E94840110E00330A1F0043028F40130A8
:100CF00031F0023099F408C0083080F414C0E12FBC
:100D0000F0E0E15EFB4F0EC0E12FF0E0E454FB4F5A
:100D100009C0E12FF0E0EF5EFC4F04C0E12FF0E0EE
:100D2000EE56FC4FF0828F2D0E9484011F5F103819
:100D3000D1F60E9476010F5F083029F61F910F91BE
:100D4000FF900895882339F08FEF90E09093190475
:100D500080931804089510921904109218040895AD
:100D6000882339F08FEF90E09093A2048093A10440
:100D700008951092A2041092A10408957F928F9278
:100D80009F92AF92BF92CF92DF92EF92FF920F931A
:100D90001F93CF93DF936C014B01EA0159017E2C25
:100DA00094010E949903CE01B401AE0195010E9405
:100DB0009903C601B501AE0195010E949903C601D0
:100DC000B401A60195010E949903002391F5CC1569
:100DD000DD0530F47E010894E11CF11C860105C09C
:100DE00076010894E11CF11C8E01A814B90428F4C2
:100DF000B5016F5F7F4F540103C0B4016F5F7F4F38
:100E00006B0112C0772029F0CE01B6010E940103C8
:100E100004C0CE01B6010E942B042196C017D10751
:100E200088F30894C11CD11CCA14DB0410F4E70138
:100E3000F5CFDF91CF911F910F91FF90EF90DF9051
:100E4000CF90BF90AF909F908F907F900895219802
:100E500020988EEA0E94B20280E00E94B20280E1F5
:100E60000E94B20280E40E94B20281E80E94B202B3
:100E70008FEC0E94B20281EA0E94B20288EC0E94CA
:100E8000B20286EA0E94B20288EA0E94B2028FE1B0
:100E90000E94B20283ED0E94B20280E00E94B20280
:100EA00085ED0E94B20280E80E94B20289ED0E94A4
:100EB000B20281EF0E94B2028AED0E94B20282E089
:100EC0000E94B2028BED0E94B20280E40E94B20244
:100ED00080E20E94B20282E00E94B2028DE80E948B
:100EE000B20284E10E94B20284EA0E94B20286EA5F
:100EF0000E94B2028FEA0E94B2028FEF90E09093BC
:100F0000A2048093A10410921904109218040E9464
:100F1000550680E060E00E94C302089580910F03AF
:100F2000882339F487EA0E94B20281E080930F039C
:100F3000089586EA0E94B20210920F0308958091EC
:100F4000B9048F5F8093B9049091B904809115041E
:100F5000981781F51092B90480919F049091A00494
:100F600001969093A00480939F0420919F04309158
:100F7000A0048091120490E028173907D9F08091DD
:100F80009F049091A00480931204809110038F5FBE
:100F90008093100380911003823011F4109210039B
:100FA00080911003813019F4559A5D9A02C0559AC8
:100FB0005D988BB1809113048F5F8093130490919F
:100FC000130480911A04981739F510921304809134
:100FD0001E048F5F80931E0490911E048091BB04B9
:100FE0009817D1F080911E048093BB048091B804BF
:100FF0008F5F8093B8048091B804823011F410920E
:10100000B8048091B804813021F4569A5E9A8BB16D
:101010000895569A5E988BB108958091B9048931EC
:1010200009F048C01092B90480919F049091A004E7
:1010300001969093A00480939F0420919F04309187
:10104000A0048091120490E028173907C1F1809123
:101050009F049091A00480931204809110038F5FED
:101060008093100380911003883711F410921003BD
:1010700080911003823351F4809113048F5F809329
:1010800013048091130481708093B804809110033D
:10109000843760F48091100381708093B70480914D
:1010A000B704882319F4559A5D9A02C0559A5D9841
:1010B0008BB105C08091B9048F5F8093B904809192
:1010C000B804882339F480911003843619F4569AB1
:1010D0005E9A8BB1809110038F3019F4569A5E9806
:1010E0008BB10895089580911D04813071F0813095
:1010F00018F08230A9F40CC082E08093150483E0DC
:1011000080931A040E949F0708950E940D08089575
:1011100081ED8093150488E680931A040E949F074E
:1011200008951F920F920FB60F9211242F933F93A1
:101130004F935F936F937F938F939F93AF93BF93DF
:10114000EF93FF930E947308FF91EF91BF91AF91CE
:101150009F918F917F916F915F914F913F912F91CF
:101160000F900FBE0F901F901895F999FECFF8942D
:101170000E94A909789408950E94B5080895F999E4
:10118000FECF0E94A10990E008950E94BF08089533
:10119000EF920F9314BE81E090E00E94BF0880930D
:1011A0001D041092B9041092130485E08093BA04D0
:1011B00087B187B988B188B985B5887F85BD85B580
:1011C000816085BD789480916E00816080936E000F
:1011D0000E94270780911D04833010F010921D0497
:1011E00090911D048091BA04981709F44AC0809127
:1011F0001D048093BA0460911D0481E090E070E0CA
:101200000E94B50880911D048130B1F0813018F042
:101210008230B9F51EC00E94550680E091E066E07C
:1012200070E04EE150E020E030E002E0EE240E9469
:10123000C30486E091E01DC00E94550682E191E062
:101240006BE070E045E050E02AE030E002E0EE24A0
:1012500016C00E9455068DE191E069E070E04FE014
:1012600050E020E030E002E0EE240E94C30486E279
:1012700091E06CE070E040E050E021E130E00E945D
:10128000C3040E94EC01811181E080931C048091D1
:101290001C04882309F49ECF80911D048F5F8093E6
:1012A0001D040E94090296CF629FD001739FF00136
:1012B000829FE00DF11D649FE00DF11D929FF00DE6
:1012C000839FF00D749FF00D659FF00D9927729F1D
:1012D000B00DE11DF91F639FB00DE11DF91FBD01A8
:1012E000CF0111240895991B79E004C0991F961726
:1012F00008F0961B881F7A95C9F780950895A1E29A
:101300001A2EAA1BBB1BFD010DC0AA1FBB1FEE1F7F
:10131000FF1FA217B307E407F50720F0A21BB30BCA
:10132000E40BF50B661F771F881F991F1A9469F746
:1013300060957095809590959B01AC01BD01CF01A2
:101340000895F999FECF92BD81BDF89A992780B58D
:101350000895262FF999FECF1FBA92BD81BD20BDF9
:101360000FB6F894FA9AF99A0FBE01960895F89478
:02137000FFCFAD
:1013720042414E43480031356B487A2031306B4848
:101382007A0044504B562020445052560057414355
:101392004820444F4700313530487A2033303048B6
:1013A2007A007F0404780000007D00004080847D84
:1013B200007F1028440000007F40007C041804785D
:1013C2007C040478003844444438FC4444443838AB
:1013D200444444FC44784404080854545420043ED1
:1013E2004424003C40207C001C2040201C3C6030F7
:1013F200603C6C10106C009CA0603C006454544C27
:1014020000083E41410000007F00000041413E08CB
:10141200020102010002040810200041417F000481
:1014220002010204808080808000030700002054B3
:101432005454787F4444443838444444283844441B
:10144200447F3854545418087E09090018A4A4A4EF
:101452007C7F090909063E4151215E7F090919660F
:10146200264949493201017F01013F4040403F1F67
:101472002040201F3F403C403F631408146307088C
:101482007008077149454300007F4141007F414197
:10149200413E7F494949417F090909013E41494984
:1014A2007A7F0808087F00417F4100304040403F7A
:1014B2007F081422417F404040407F0204027F7F28
:1014C2000204087F3E4141413E36494949360649B8
:1014D20049291E006C6C000000EC6C00000814220C
:1014E2004100242424242400412214080201590921
:1014F200063E415D551E7E0909097E7F49494936EE
:101502003E4141412200E06000000808080808004E
:101512006060000020100804023E5149453E00422E
:101522007F400062514949462249494936181412FE
:101532007F1027454545393C4A4949300171090523
:1015420003000000000000065F0600070300070317
:10155200247E247E24242B6A1200631308646336DB
:10156200495620500007030000003E4100000041A0
:0E1572003E0000083E1C3E0808083E08080027
:00000001FF
